{
  "_format": "hh-sol-artifact-1",
  "contractName": "CarryTradeVault",
  "sourceName": "contracts/CarryTradeVault.sol",
  "abi": [
    {
      "inputs": [
        {
          "internalType": "uint256",
          "name": "initialHedgeRatioBps",
          "type": "uint256"
        }
      ],
      "stateMutability": "nonpayable",
      "type": "constructor"
    },
    {
      "inputs": [],
      "name": "AssetHubSovereignNotSet",
      "type": "error"
    },
    {
      "inputs": [],
      "name": "CallTemplatesNotSet",
      "type": "error"
    },
    {
      "inputs": [],
      "name": "EnforcedPause",
      "type": "error"
    },
    {
      "inputs": [],
      "name": "ExpectedPause",
      "type": "error"
    },
    {
      "inputs": [
        {
          "internalType": "uint256",
          "name": "bps",
          "type": "uint256"
        }
      ],
      "name": "HedgeRatioTooHigh",
      "type": "error"
    },
    {
      "inputs": [
        {
          "internalType": "uint256",
          "name": "available",
          "type": "uint256"
        },
        {
          "internalType": "uint256",
          "name": "requested",
          "type": "uint256"
        }
      ],
      "name": "InsufficientBalance",
      "type": "error"
    },
    {
      "inputs": [
        {
          "internalType": "uint256",
          "name": "sent",
          "type": "uint256"
        },
        {
          "internalType": "uint256",
          "name": "required",
          "type": "uint256"
        }
      ],
      "name": "InsufficientFee",
      "type": "error"
    },
    {
      "inputs": [
        {
          "internalType": "enum CarryTradeVault.VaultState",
          "name": "current",
          "type": "uint8"
        },
        {
          "internalType": "enum CarryTradeVault.VaultState",
          "name": "required",
          "type": "uint8"
        }
      ],
      "name": "InvalidState",
      "type": "error"
    },
    {
      "inputs": [
        {
          "internalType": "address",
          "name": "owner",
          "type": "address"
        }
      ],
      "name": "OwnableInvalidOwner",
      "type": "error"
    },
    {
      "inputs": [
        {
          "internalType": "address",
          "name": "account",
          "type": "address"
        }
      ],
      "name": "OwnableUnauthorizedAccount",
      "type": "error"
    },
    {
      "inputs": [],
      "name": "ReentrancyGuardReentrantCall",
      "type": "error"
    },
    {
      "inputs": [],
      "name": "SubstrateAccountNotSet",
      "type": "error"
    },
    {
      "inputs": [
        {
          "internalType": "enum CarryTradeVault.VaultState",
          "name": "current",
          "type": "uint8"
        }
      ],
      "name": "WithdrawNotAllowed",
      "type": "error"
    },
    {
      "inputs": [],
      "name": "ZeroDeposit",
      "type": "error"
    },
    {
      "inputs": [],
      "name": "ZeroShares",
      "type": "error"
    },
    {
      "anonymous": false,
      "inputs": [
        {
          "indexed": false,
          "internalType": "bytes32",
          "name": "account",
          "type": "bytes32"
        }
      ],
      "name": "AssetHubSovereignUpdated",
      "type": "event"
    },
    {
      "anonymous": false,
      "inputs": [],
      "name": "CallTemplatesUpdated",
      "type": "event"
    },
    {
      "anonymous": false,
      "inputs": [
        {
          "indexed": false,
          "internalType": "uint256",
          "name": "timestamp",
          "type": "uint256"
        }
      ],
      "name": "CarryConfirmed",
      "type": "event"
    },
    {
      "anonymous": false,
      "inputs": [
        {
          "indexed": false,
          "internalType": "uint256",
          "name": "bifrostAmount",
          "type": "uint256"
        },
        {
          "indexed": false,
          "internalType": "uint256",
          "name": "hedgeAmount",
          "type": "uint256"
        },
        {
          "indexed": false,
          "internalType": "uint256",
          "name": "timestamp",
          "type": "uint256"
        }
      ],
      "name": "CarryExecuted",
      "type": "event"
    },
    {
      "anonymous": false,
      "inputs": [
        {
          "indexed": true,
          "internalType": "address",
          "name": "user",
          "type": "address"
        },
        {
          "indexed": false,
          "internalType": "uint256",
          "name": "dotAmount",
          "type": "uint256"
        },
        {
          "indexed": false,
          "internalType": "uint256",
          "name": "sharesIssued",
          "type": "uint256"
        }
      ],
      "name": "Deposited",
      "type": "event"
    },
    {
      "anonymous": false,
      "inputs": [
        {
          "indexed": false,
          "internalType": "uint32",
          "name": "destParaId",
          "type": "uint32"
        },
        {
          "indexed": false,
          "internalType": "uint256",
          "name": "timestamp",
          "type": "uint256"
        }
      ],
      "name": "EmergencyXCMSent",
      "type": "event"
    },
    {
      "anonymous": false,
      "inputs": [
        {
          "indexed": false,
          "internalType": "uint256",
          "name": "feeSent",
          "type": "uint256"
        },
        {
          "indexed": false,
          "internalType": "uint256",
          "name": "timestamp",
          "type": "uint256"
        }
      ],
      "name": "HarvestInitiated",
      "type": "event"
    },
    {
      "anonymous": false,
      "inputs": [
        {
          "indexed": false,
          "internalType": "uint256",
          "name": "oldBps",
          "type": "uint256"
        },
        {
          "indexed": false,
          "internalType": "uint256",
          "name": "newBps",
          "type": "uint256"
        }
      ],
      "name": "HedgeRatioUpdated",
      "type": "event"
    },
    {
      "anonymous": false,
      "inputs": [
        {
          "indexed": true,
          "internalType": "address",
          "name": "previousOwner",
          "type": "address"
        },
        {
          "indexed": true,
          "internalType": "address",
          "name": "newOwner",
          "type": "address"
        }
      ],
      "name": "OwnershipTransferred",
      "type": "event"
    },
    {
      "anonymous": false,
      "inputs": [
        {
          "indexed": false,
          "internalType": "address",
          "name": "account",
          "type": "address"
        }
      ],
      "name": "Paused",
      "type": "event"
    },
    {
      "anonymous": false,
      "inputs": [
        {
          "indexed": false,
          "internalType": "uint256",
          "name": "timestamp",
          "type": "uint256"
        }
      ],
      "name": "PositionUnwound",
      "type": "event"
    },
    {
      "anonymous": false,
      "inputs": [
        {
          "indexed": false,
          "internalType": "bytes32",
          "name": "account",
          "type": "bytes32"
        }
      ],
      "name": "SubstrateAccountUpdated",
      "type": "event"
    },
    {
      "anonymous": false,
      "inputs": [
        {
          "indexed": false,
          "internalType": "address",
          "name": "account",
          "type": "address"
        }
      ],
      "name": "Unpaused",
      "type": "event"
    },
    {
      "anonymous": false,
      "inputs": [
        {
          "indexed": true,
          "internalType": "address",
          "name": "user",
          "type": "address"
        },
        {
          "indexed": false,
          "internalType": "uint256",
          "name": "sharesRedeemed",
          "type": "uint256"
        },
        {
          "indexed": false,
          "internalType": "uint256",
          "name": "dotReturned",
          "type": "uint256"
        }
      ],
      "name": "Withdrawn",
      "type": "event"
    },
    {
      "anonymous": false,
      "inputs": [
        {
          "indexed": false,
          "internalType": "uint256",
          "name": "amount",
          "type": "uint256"
        },
        {
          "indexed": false,
          "internalType": "uint256",
          "name": "newTotalDeposited",
          "type": "uint256"
        }
      ],
      "name": "YieldReceived",
      "type": "event"
    },
    {
      "inputs": [],
      "name": "BIFROST_PARA_ID",
      "outputs": [
        {
          "internalType": "uint32",
          "name": "",
          "type": "uint32"
        }
      ],
      "stateMutability": "view",
      "type": "function"
    },
    {
      "inputs": [],
      "name": "BPS_DENOM",
      "outputs": [
        {
          "internalType": "uint256",
          "name": "",
          "type": "uint256"
        }
      ],
      "stateMutability": "view",
      "type": "function"
    },
    {
      "inputs": [],
      "name": "HYDRATION_PARA_ID",
      "outputs": [
        {
          "internalType": "uint32",
          "name": "",
          "type": "uint32"
        }
      ],
      "stateMutability": "view",
      "type": "function"
    },
    {
      "inputs": [],
      "name": "MAX_HEDGE_BPS",
      "outputs": [
        {
          "internalType": "uint256",
          "name": "",
          "type": "uint256"
        }
      ],
      "stateMutability": "view",
      "type": "function"
    },
    {
      "inputs": [],
      "name": "XCM",
      "outputs": [
        {
          "internalType": "contract IXcm",
          "name": "",
          "type": "address"
        }
      ],
      "stateMutability": "view",
      "type": "function"
    },
    {
      "inputs": [],
      "name": "XCM_FEE",
      "outputs": [
        {
          "internalType": "uint256",
          "name": "",
          "type": "uint256"
        }
      ],
      "stateMutability": "view",
      "type": "function"
    },
    {
      "inputs": [],
      "name": "assetHubSovereign",
      "outputs": [
        {
          "internalType": "bytes32",
          "name": "",
          "type": "bytes32"
        }
      ],
      "stateMutability": "view",
      "type": "function"
    },
    {
      "inputs": [],
      "name": "bifrostDeploymentAmount",
      "outputs": [
        {
          "internalType": "uint256",
          "name": "",
          "type": "uint256"
        }
      ],
      "stateMutability": "view",
      "type": "function"
    },
    {
      "inputs": [],
      "name": "bifrostMintCall",
      "outputs": [
        {
          "internalType": "bytes",
          "name": "",
          "type": "bytes"
        }
      ],
      "stateMutability": "view",
      "type": "function"
    },
    {
      "inputs": [],
      "name": "confirmActive",
      "outputs": [],
      "stateMutability": "nonpayable",
      "type": "function"
    },
    {
      "inputs": [],
      "name": "deposit",
      "outputs": [],
      "stateMutability": "payable",
      "type": "function"
    },
    {
      "inputs": [
        {
          "internalType": "uint32",
          "name": "destParaId",
          "type": "uint32"
        },
        {
          "internalType": "bytes",
          "name": "xcmMessage",
          "type": "bytes"
        }
      ],
      "name": "emergencyRecoverXCM",
      "outputs": [],
      "stateMutability": "payable",
      "type": "function"
    },
    {
      "inputs": [],
      "name": "executeCarry",
      "outputs": [],
      "stateMutability": "nonpayable",
      "type": "function"
    },
    {
      "inputs": [
        {
          "internalType": "address",
          "name": "user",
          "type": "address"
        }
      ],
      "name": "getPosition",
      "outputs": [
        {
          "internalType": "uint256",
          "name": "userShares",
          "type": "uint256"
        },
        {
          "internalType": "uint256",
          "name": "dotValue",
          "type": "uint256"
        },
        {
          "internalType": "uint256",
          "name": "sharePct",
          "type": "uint256"
        }
      ],
      "stateMutability": "view",
      "type": "function"
    },
    {
      "inputs": [],
      "name": "harvest",
      "outputs": [],
      "stateMutability": "payable",
      "type": "function"
    },
    {
      "inputs": [],
      "name": "hedgeDeploymentAmount",
      "outputs": [
        {
          "internalType": "uint256",
          "name": "",
          "type": "uint256"
        }
      ],
      "stateMutability": "view",
      "type": "function"
    },
    {
      "inputs": [],
      "name": "hedgeRatioBps",
      "outputs": [
        {
          "internalType": "uint256",
          "name": "",
          "type": "uint256"
        }
      ],
      "stateMutability": "view",
      "type": "function"
    },
    {
      "inputs": [],
      "name": "hydrationSellCall",
      "outputs": [
        {
          "internalType": "bytes",
          "name": "",
          "type": "bytes"
        }
      ],
      "stateMutability": "view",
      "type": "function"
    },
    {
      "inputs": [],
      "name": "owner",
      "outputs": [
        {
          "internalType": "address",
          "name": "",
          "type": "address"
        }
      ],
      "stateMutability": "view",
      "type": "function"
    },
    {
      "inputs": [],
      "name": "pause",
      "outputs": [],
      "stateMutability": "nonpayable",
      "type": "function"
    },
    {
      "inputs": [],
      "name": "paused",
      "outputs": [
        {
          "internalType": "bool",
          "name": "",
          "type": "bool"
        }
      ],
      "stateMutability": "view",
      "type": "function"
    },
    {
      "inputs": [
        {
          "internalType": "address",
          "name": "user",
          "type": "address"
        }
      ],
      "name": "positionValue",
      "outputs": [
        {
          "internalType": "uint256",
          "name": "",
          "type": "uint256"
        }
      ],
      "stateMutability": "view",
      "type": "function"
    },
    {
      "inputs": [
        {
          "internalType": "uint256",
          "name": "yieldAmount",
          "type": "uint256"
        }
      ],
      "name": "recordYield",
      "outputs": [],
      "stateMutability": "nonpayable",
      "type": "function"
    },
    {
      "inputs": [],
      "name": "renounceOwnership",
      "outputs": [],
      "stateMutability": "nonpayable",
      "type": "function"
    },
    {
      "inputs": [
        {
          "internalType": "bytes32",
          "name": "_account",
          "type": "bytes32"
        }
      ],
      "name": "setAssetHubSovereign",
      "outputs": [],
      "stateMutability": "nonpayable",
      "type": "function"
    },
    {
      "inputs": [
        {
          "internalType": "bytes",
          "name": "_bifrostMintCall",
          "type": "bytes"
        },
        {
          "internalType": "bytes",
          "name": "_hydrationSellCall",
          "type": "bytes"
        }
      ],
      "name": "setCallTemplates",
      "outputs": [],
      "stateMutability": "nonpayable",
      "type": "function"
    },
    {
      "inputs": [
        {
          "internalType": "uint256",
          "name": "newBps",
          "type": "uint256"
        }
      ],
      "name": "setHedgeRatio",
      "outputs": [],
      "stateMutability": "nonpayable",
      "type": "function"
    },
    {
      "inputs": [
        {
          "internalType": "bytes32",
          "name": "_account",
          "type": "bytes32"
        }
      ],
      "name": "setVaultSubstrateAccount",
      "outputs": [],
      "stateMutability": "nonpayable",
      "type": "function"
    },
    {
      "inputs": [],
      "name": "sharePrice",
      "outputs": [
        {
          "internalType": "uint256",
          "name": "",
          "type": "uint256"
        }
      ],
      "stateMutability": "view",
      "type": "function"
    },
    {
      "inputs": [
        {
          "internalType": "address",
          "name": "",
          "type": "address"
        }
      ],
      "name": "shares",
      "outputs": [
        {
          "internalType": "uint256",
          "name": "",
          "type": "uint256"
        }
      ],
      "stateMutability": "view",
      "type": "function"
    },
    {
      "inputs": [],
      "name": "state",
      "outputs": [
        {
          "internalType": "enum CarryTradeVault.VaultState",
          "name": "",
          "type": "uint8"
        }
      ],
      "stateMutability": "view",
      "type": "function"
    },
    {
      "inputs": [],
      "name": "totalDeposited",
      "outputs": [
        {
          "internalType": "uint256",
          "name": "",
          "type": "uint256"
        }
      ],
      "stateMutability": "view",
      "type": "function"
    },
    {
      "inputs": [],
      "name": "totalShares",
      "outputs": [
        {
          "internalType": "uint256",
          "name": "",
          "type": "uint256"
        }
      ],
      "stateMutability": "view",
      "type": "function"
    },
    {
      "inputs": [],
      "name": "totalYieldHarvested",
      "outputs": [
        {
          "internalType": "uint256",
          "name": "",
          "type": "uint256"
        }
      ],
      "stateMutability": "view",
      "type": "function"
    },
    {
      "inputs": [
        {
          "internalType": "address",
          "name": "newOwner",
          "type": "address"
        }
      ],
      "name": "transferOwnership",
      "outputs": [],
      "stateMutability": "nonpayable",
      "type": "function"
    },
    {
      "inputs": [],
      "name": "unpause",
      "outputs": [],
      "stateMutability": "nonpayable",
      "type": "function"
    },
    {
      "inputs": [],
      "name": "unwindCarry",
      "outputs": [],
      "stateMutability": "nonpayable",
      "type": "function"
    },
    {
      "inputs": [],
      "name": "vaultSubstrateAccount",
      "outputs": [
        {
          "internalType": "bytes32",
          "name": "",
          "type": "bytes32"
        }
      ],
      "stateMutability": "view",
      "type": "function"
    },
    {
      "inputs": [
        {
          "internalType": "uint256",
          "name": "shareAmount",
          "type": "uint256"
        }
      ],
      "name": "withdraw",
      "outputs": [],
      "stateMutability": "nonpayable",
      "type": "function"
    },
    {
      "stateMutability": "payable",
      "type": "receive"
    }
  ],
  "bytecode": "0x60806040523480156200001157600080fd5b5060405162002c5838038062002c588339810160408190526200003491620000f8565b33806200005c57604051631e4fbdf760e01b8152600060048201526024015b60405180910390fd5b6200006781620000a8565b506001805561138881111562000094576040516301f900db60e11b81526004810182905260240162000053565b6005556002805461ff001916905562000112565b600080546001600160a01b038381166001600160a01b0319831681178455604051919092169283917f8be0079c531659141344cd1fd0a4f28419497f9722a3daafe3b4186f6b6457e09190a35050565b6000602082840312156200010b57600080fd5b5051919050565b612b3680620001226000396000f3fe6080604052600436106102345760003560e01c806370c27d1a1161012e578063c2dc2b43116100ab578063e6be326a1161006f578063e6be326a146105f0578063f2fde38b14610610578063f3a7d25a14610630578063fe5ef6cd14610646578063ff50abdc1461066657600080fd5b8063c2dc2b431461057d578063ce7c2ac214610593578063d0e30db0146105c0578063d6710189146105c8578063d9a0d3ba146105dd57600080fd5b80638831d618116100f25780638831d618146104ed5780638da5cb5b14610503578063a7c79d2d14610521578063b1694d2014610536578063c19d93fb1461055157600080fd5b806370c27d1a14610463578063715018a61461048e5780637ebea8ba146104a35780638456cb59146104c357806387269729146104d857600080fd5b806341bbec06116101bc5780635f48e22b116101805780635f48e22b146103bc57806360a5c3ff146103de5780636637e38c1461040d578063677c585b146104235780636927d4151461044357600080fd5b806341bbec06146103475780634641257d1461035c5780634de7c7bd1461036457806357838378146103845780635c975abb1461039957600080fd5b806322a6619e1161020357806322a6619e146102cf5780632445f505146102e55780632e1a7d4d146102fc5780633a98ef391461031c5780633f4ba83a1461033257600080fd5b8063106396fa14610240578063146a356314610268578063147b38c81461027e57806316c197391461029457600080fd5b3661023b57005b600080fd5b34801561024c57600080fd5b5061025561067c565b6040519081526020015b60405180910390f35b34801561027457600080fd5b5061025560055481565b34801561028a57600080fd5b5061025561138881565b3480156102a057600080fd5b506102b46102af3660046121ca565b6106a0565b6040805193845260208401929092529082015260600161025f565b3480156102db57600080fd5b5061025560045481565b3480156102f157600080fd5b506102fa610712565b005b34801561030857600080fd5b506102fa6103173660046121f3565b6107b3565b34801561032857600080fd5b5061025560065481565b34801561033e57600080fd5b506102fa6109c7565b34801561035357600080fd5b506102fa6109d9565b6102fa610a6b565b34801561037057600080fd5b5061025561037f3660046121ca565b610d35565b34801561039057600080fd5b50610255610d82565b3480156103a557600080fd5b5060025460ff16604051901515815260200161025f565b3480156103c857600080fd5b506103d1610dae565b60405161025f919061225c565b3480156103ea57600080fd5b506103f5620a000081565b6040516001600160a01b03909116815260200161025f565b34801561041957600080fd5b5061025561271081565b34801561042f57600080fd5b506102fa61043e3660046122b8565b610e3c565b34801561044f57600080fd5b506102fa61045e3660046121f3565b610e8f565b34801561046f57600080fd5b506104796107f281565b60405163ffffffff909116815260200161025f565b34801561049a57600080fd5b506102fa610ed3565b3480156104af57600080fd5b506102fa6104be3660046121f3565b610ee5565b3480156104cf57600080fd5b506102fa610f22565b3480156104e457600080fd5b50610255610f32565b3480156104f957600080fd5b506104796107d181565b34801561050f57600080fd5b506000546001600160a01b03166103f5565b34801561052d57600080fd5b506102fa610f63565b34801561054257600080fd5b50610255662386f26fc1000081565b34801561055d57600080fd5b5060025461057090610100900460ff1681565b60405161025f919061235c565b34801561058957600080fd5b50610255600a5481565b34801561059f57600080fd5b506102556105ae3660046121ca565b60076020526000908152604090205481565b6102fa611419565b3480156105d457600080fd5b506103d161158d565b6102fa6105eb36600461236a565b61159a565b3480156105fc57600080fd5b506102fa61060b3660046121f3565b611732565b34801561061c57600080fd5b506102fa61062b3660046121ca565b6117a1565b34801561063c57600080fd5b50610255600b5481565b34801561065257600080fd5b506102fa6106613660046121f3565b6117dc565b34801561067257600080fd5b5061025560035481565b600061271060055460035461069191906123de565b61069b91906123f5565b905090565b6001600160a01b038116600090815260076020526040812054600654909190819081036106d25750600090508061070b565b6006546003546106e290856123de565b6106ec91906123f5565b6006549092506106fe612710856123de565b61070891906123f5565b90505b9193909250565b61071a61189d565b600160028054610100900460ff169081111561073857610738612324565b1461076e57600254604051633bf2e2f960e11b815261076591610100900460ff1690600190600401612417565b60405180910390fd5b6002805461ff0019166102001790556040514281527fb4ee824863deba0cb04d45e5e412e4db6934db52d3c0d3d04d08c3682c2d62b6906020015b60405180910390a1565b6107bb6118ca565b6107c36118f4565b600060028054610100900460ff16908111156107e1576107e1612324565b1461080b5760025460405163e975bf8960e01b815261076591610100900460ff169060040161235c565b3360009081526007602052604090205481111561085757336000908152600760205260409081902054905163cf47918160e01b8152600481019190915260248101829052604401610765565b8060000361087857604051639811e0c760e01b815260040160405180910390fd5b60006006546003548361088b91906123de565b61089591906123f5565b336000908152600760205260408120805492935084929091906108b9908490612432565b9250508190555081600660008282546108d29190612432565b9250508190555080600360008282546108eb9190612432565b9091555050604051600090339083908381818185875af1925050503d8060008114610932576040519150601f19603f3d011682016040523d82523d6000602084013e610937565b606091505b505090508061097e5760405162461bcd60e51b81526020600482015260136024820152721113d5081d1c985b9cd9995c8819985a5b1959606a1b6044820152606401610765565b604080518481526020810184905233917f92ccf450a286a957af52509bc1c9939d1a6a481783e142e41e2499f0bb66ebc6910160405180910390a250506109c460018055565b50565b6109cf61189d565b6109d7611918565b565b6109e161189d565b6002808054610100900460ff16908111156109fe576109fe612324565b14610a3057600260019054906101000a900460ff166002604051633bf2e2f960e11b8152600401610765929190612417565b6002805461ff00191690556040514281527f801a2baba6a0df6e900a7a4ba618012b6c4cb2784b2efa1062292d6267256956906020016107a9565b610a7361189d565b6002808054610100900460ff1690811115610a9057610a90612324565b14610ac257600260019054906101000a900460ff166002604051633bf2e2f960e11b8152600401610765929190612417565b610ad4662386f26fc1000060026123de565b341015610b105734610aee662386f26fc1000060026123de565b60405163a458261b60e01b815260048101929092526024820152604401610765565b6000610b2934662386f26fc10000600b546107d1611965565b6040516347400c2360e01b8152909150620a00009063d3b7e04d90839083906347400c2390610b5c90849060040161225c565b6040805180830381865afa158015610b78573d6000803e3d6000fd5b505050506040513d601f19601f82011682018060405250810190610b9c9190612473565b6040518363ffffffff1660e01b8152600401610bb99291906124ce565b600060405180830381600087803b158015610bd357600080fd5b505af1158015610be7573d6000803e3d6000fd5b505050506000610bf86107d16119c6565b90506000610c9a662386f26fc10000600a5460088054610c1790612509565b80601f0160208091040260200160405190810160405280929190818152602001828054610c4390612509565b8015610c905780601f10610c6557610100808354040283529160200191610c90565b820191906000526020600020905b815481529060010190602001808311610c7357829003601f168201915b5050505050611a0e565b604051637f0a3bf960e01b8152909150620a000090637f0a3bf990610cc5908590859060040161253d565b600060405180830381600087803b158015610cdf57600080fd5b505af1158015610cf3573d6000803e3d6000fd5b5050604080513481524260208201527fcd7ddfd49f55fb5f20c3bbd2b4f0406511df3b910f35d620431b82893714bca2935001905060405180910390a1505050565b6000600654600003610d4957506000919050565b6006546003546001600160a01b038416600090815260076020526040902054610d7291906123de565b610d7c91906123f5565b92915050565b6000612710600554600354610d9791906123de565b610da191906123f5565b60035461069b9190612432565b60098054610dbb90612509565b80601f0160208091040260200160405190810160405280929190818152602001828054610de790612509565b8015610e345780601f10610e0957610100808354040283529160200191610e34565b820191906000526020600020905b815481529060010190602001808311610e1757829003601f168201915b505050505081565b610e4461189d565b6008610e518486836125bc565b506009610e5f8284836125bc565b506040517f76c7a69464c10116ea3d298062d6608dc9c15c4695cdcb6056d54e425ea3c76b90600090a150505050565b610e9761189d565b600b8190556040518181527fe8c1dd5bdd062202331c68de43258995f71e46b3f38d2c6e78fe6c6fe06c082c906020015b60405180910390a150565b610edb61189d565b6109d76000611a9c565b610eed61189d565b600a8190556040518181527f15fa9a78a6b2da4b852977a4c084d773a1a123fcd6e415819e681fe849e0524f90602001610ec8565b610f2a61189d565b6109d7611aec565b6000600654600003610f4b5750670de0b6b3a764000090565b60065460035461069190670de0b6b3a76400006123de565b610f6b61189d565b610f736118f4565b600060028054610100900460ff1690811115610f9157610f91612324565b14610fbe57600254604051633bf2e2f960e11b815261076591610100900460ff1690600090600401612417565b60088054610fcb90612509565b15905080610fe5575060098054610fe190612509565b1590505b1561100357604051633525f6fd60e11b815260040160405180910390fd5b600a5461102357604051634b34bae960e11b815260040160405180910390fd5b600b546110435760405163cfe99ff360e01b815260040160405180910390fd5b600061271060055460035461105891906123de565b61106291906123f5565b90506000816003546110749190612432565b9050600061108f82662386f26fc10000600b546107d1611965565b6040516347400c2360e01b8152909150620a00009063d3b7e04d90839083906347400c23906110c290849060040161225c565b6040805180830381865afa1580156110de573d6000803e3d6000fd5b505050506040513d601f19601f820116820180604052508101906111029190612473565b6040518363ffffffff1660e01b815260040161111f9291906124ce565b600060405180830381600087803b15801561113957600080fd5b505af115801561114d573d6000803e3d6000fd5b50505050600061115e6107d16119c6565b9050600061117d662386f26fc10000600a5460088054610c1790612509565b604051637f0a3bf960e01b8152909150620a000090637f0a3bf9906111a8908590859060040161253d565b600060405180830381600087803b1580156111c257600080fd5b505af11580156111d6573d6000803e3d6000fd5b5050505060006111f386662386f26fc10000600b546107f2611965565b6040516347400c2360e01b8152909150620a00009063d3b7e04d90839083906347400c239061122690849060040161225c565b6040805180830381865afa158015611242573d6000803e3d6000fd5b505050506040513d601f19601f820116820180604052508101906112669190612473565b6040518363ffffffff1660e01b81526004016112839291906124ce565b600060405180830381600087803b15801561129d57600080fd5b505af11580156112b1573d6000803e3d6000fd5b5050505060006112c26107f26119c6565b90506000611364662386f26fc10000600a54600980546112e190612509565b80601f016020809104026020016040519081016040528092919081815260200182805461130d90612509565b801561135a5780601f1061132f5761010080835404028352916020019161135a565b820191906000526020600020905b81548152906001019060200180831161133d57829003601f168201915b5050505050611b29565b604051637f0a3bf960e01b8152909150620a000090637f0a3bf99061138f908590859060040161253d565b600060405180830381600087803b1580156113a957600080fd5b505af11580156113bd573d6000803e3d6000fd5b50506002805461ff001916610100179055505060408051888152602081018a9052428183015290517fb5643b1dadaef7eed8453bda5d84fe038823c9e48aeca137a6513dcb41ec133a9181900360600190a15050505050505050565b6114216118ca565b6114296118f4565b3460000361144a576040516356316e8760e01b815260040160405180910390fd5b600160028054610100900460ff169081111561146857611468612324565b0361149557600254604051633bf2e2f960e11b815261076591610100900460ff1690600090600401612417565b6000600654600014806114a85750600354155b156114b45750346114d1565b6003546006546114c490346123de565b6114ce91906123f5565b90505b806000036114f257604051639811e0c760e01b815260040160405180910390fd5b336000908152600760205260408120805483929061151190849061267d565b92505081905550806006600082825461152a919061267d565b925050819055503460036000828254611543919061267d565b9091555050604080513481526020810183905233917f73a19dd210f1a7f902193214c0ee91dd35ee5b4d920cba8d519eca65a7b488ca910160405180910390a2506109d760018055565b60088054610dbb90612509565b6115a261189d565b34156116835760006115bf34662386f26fc10000600b5487611965565b6040516347400c2360e01b8152909150620a00009063d3b7e04d90839083906347400c23906115f290849060040161225c565b6040805180830381865afa15801561160e573d6000803e3d6000fd5b505050506040513d601f19601f820116820180604052508101906116329190612473565b6040518363ffffffff1660e01b815260040161164f9291906124ce565b600060405180830381600087803b15801561166957600080fd5b505af115801561167d573d6000803e3d6000fd5b50505050505b600061168e846119c6565b604051637f0a3bf960e01b8152909150620a000090637f0a3bf9906116bb90849087908790600401612690565b600060405180830381600087803b1580156116d557600080fd5b505af11580156116e9573d6000803e3d6000fd5b50506040805163ffffffff881681524260208201527fc4e10cac240342acc3a8c4b558d9d00a206148cac7525381fe5cf92f5180aaf8935001905060405180910390a150505050565b61173a61189d565b611388811115611760576040516301f900db60e11b815260048101829052602401610765565b60055460408051918252602082018390527f0d49b54c542505c766c10e5fec1891505d0044143f834bf0bd39fca3f5e9b9c0910160405180910390a1600555565b6117a961189d565b6001600160a01b0381166117d357604051631e4fbdf760e01b815260006004820152602401610765565b6109c481611a9c565b6117e461189d565b6002808054610100900460ff169081111561180157611801612324565b1461183357600260019054906101000a900460ff166002604051633bf2e2f960e11b8152600401610765929190612417565b8060036000828254611845919061267d565b92505081905550806004600082825461185e919061267d565b90915550506003546040805183815260208101929092527f38f90a18586ba2e828b30836bed96d7a055856543240b6e84e2295b3edf5c4fa9101610ec8565b6000546001600160a01b031633146109d75760405163118cdaa760e01b8152336004820152602401610765565b6002600154036118ed57604051633ee5aeb560e01b815260040160405180910390fd5b6002600155565b60025460ff16156109d75760405163d93c066560e01b815260040160405180910390fd5b611920611b5f565b6002805460ff191690557f5db9ee0a495bf2e6ff9c91a7834c1ba4fdd244a5e8aa4e537bd38aeae4b073aa335b6040516001600160a01b0390911681526020016107a9565b6060600560f81b6119766002611b82565b61197f87611e97565b61199a61198b86611eb5565b6119958989611ee1565b611f28565b6040516020016119ad94939291906126d6565b6040516020818303038152906040529050949350505050565b6060600560f81b600160f81b8060006119e463ffffffff8716611b82565b6040516020016119f8959493929190612734565b6040516020818303038152906040529050919050565b6060600560f81b611a1f6005611b82565b611a2886611f4d565b611a3187611f5a565b611a446402540be4006201000088611f7e565b60408051600560fa1b6020820152815180820360010181526021909101909152611a6d89611fd0565b604051602001611a839796959493929190612780565b60405160208183030381529060405290505b9392505050565b600080546001600160a01b038381166001600160a01b0319831681178455604051919092169283917f8be0079c531659141344cd1fd0a4f28419497f9722a3daafe3b4186f6b6457e09190a35050565b611af46118f4565b6002805460ff191660011790557f62e78cea01bee320cd4e420270b5ea74000d11b0c9f74754ebdbfc544b05a25861194d3390565b6060600560f81b611b3a6005611b82565b611b4386611f4d565b611b4c87611f5a565b611a4464174876e8006204000088611f7e565b60025460ff166109d757604051638dfc202b60e01b815260040160405180910390fd5b60606040821015611be35760408051600180825281830190925290602082018180368337019050509050600282901b60f81b81600081518110611bc757611bc761281a565b60200101906001600160f81b031916908160001a905350919050565b614000821015611c7c57604080516002808252818301909252600184831b17916020820181803683370190505091508060f81b82600081518110611c2957611c2961281a565b60200101906001600160f81b031916908160001a90535060088161ffff16901c60f81b82600181518110611c5f57611c5f61281a565b60200101906001600160f81b031916908160001a90535050919050565b6340000000821015611d6c57604080516004808252818301909252600284811b17916020820181803683370190505091508060f81b82600081518110611cc457611cc461281a565b60200101906001600160f81b031916908160001a90535060088163ffffffff16901c60f81b82600181518110611cfc57611cfc61281a565b60200101906001600160f81b031916908160001a90535060108163ffffffff16901c60f81b82600281518110611d3457611d3461281a565b60200101906001600160f81b031916908160001a90535060188163ffffffff16901c60f81b82600381518110611c5f57611c5f61281a565b6000611d778361201f565b90506000611d84846120a6565b9050611d91816001612830565b60ff1667ffffffffffffffff811115611dac57611dac612445565b6040519080825280601f01601f191660200182016040528015611dd6576020820181803683370190505b5092506002611de6600483612849565b60ff16901b60031760f81b83600081518110611e0457611e0461281a565b60200101906001600160f81b031916908160001a90535060005b8160ff168160ff161015611e8e57828160ff1681518110611e4157611e4161281a565b01602001516001600160f81b03191684611e5c836001612830565b60ff1681518110611e6f57611e6f61281a565b60200101906001600160f81b031916908160001a905350600101611e1e565b5050505b919050565b60606000611ea4836120f6565b6040516020016119f8929190612862565b6060600160f81b806000611ece63ffffffff8616611b82565b6040516020016119f89493929190612893565b6060611eed6002611b82565b611ef684611f5a565b611eff84611fd0565b604051602001611f11939291906128d6565b604051602081830303815290604052905092915050565b604051606090611f1190600760f91b90600160f81b9060009087908790602001612919565b60606000611ea48361211c565b6060601360f81b611f6a8361212d565b6040516119f8929190600090602001612972565b6060600360f91b600160f81b611f9d67ffffffffffffffff8716611b82565b611fb08667ffffffffffffffff16611b82565b611fba8651611b82565b86604051602001611a83969594939291906129a9565b604051600d60f81b6020820152600160f81b60218201819052600060228301819052602383018190526024830182905260258301919091526026820152602781018290526060906047016119f8565b60408051601080825281830190925260609160208201818036833701905050905060005b60108160ff1610156120a05761205a816008612a27565b60ff16836001600160801b0316901c60f81b828260ff16815181106120815761208161281a565b60200101906001600160f81b031916908160001a905350600101612043565b50919050565b60045b60108160ff161080156120df57506120c2816008612a27565b60ff16826001600160801b0316901c6001600160801b0316600014155b15611e9257806120ee81612a4a565b9150506120a9565b60606121026001611b82565b61210b83612190565b6040516020016119f8929190612a69565b60606121286001611b82565b61210b835b6060600061213f6305f5e100846123f5565b90506000600160f81b80826121556103e8611b82565b600160f81b61216387611b82565b6040516020016121799796959493929190612a98565b604051602081830303815290604052915050919050565b606060006121a26305f5e100846123f5565b905060008080600160f81b6121b685611b82565b604051602001612179959493929190612734565b6000602082840312156121dc57600080fd5b81356001600160a01b0381168114611a9557600080fd5b60006020828403121561220557600080fd5b5035919050565b60005b8381101561222757818101518382015260200161220f565b50506000910152565b6000815180845261224881602086016020860161220c565b601f01601f19169290920160200192915050565b602081526000611a956020830184612230565b60008083601f84011261228157600080fd5b50813567ffffffffffffffff81111561229957600080fd5b6020830191508360208285010111156122b157600080fd5b9250929050565b600080600080604085870312156122ce57600080fd5b843567ffffffffffffffff808211156122e657600080fd5b6122f28883890161226f565b9096509450602087013591508082111561230b57600080fd5b506123188782880161226f565b95989497509550505050565b634e487b7160e01b600052602160045260246000fd5b6003811061235857634e487b7160e01b600052602160045260246000fd5b9052565b60208101610d7c828461233a565b60008060006040848603121561237f57600080fd5b833563ffffffff8116811461239357600080fd5b9250602084013567ffffffffffffffff8111156123af57600080fd5b6123bb8682870161226f565b9497909650939450505050565b634e487b7160e01b600052601160045260246000fd5b8082028115828204841417610d7c57610d7c6123c8565b60008261241257634e487b7160e01b600052601260045260246000fd5b500490565b60408101612425828561233a565b611a95602083018461233a565b81810381811115610d7c57610d7c6123c8565b634e487b7160e01b600052604160045260246000fd5b805167ffffffffffffffff81168114611e9257600080fd5b60006040828403121561248557600080fd5b6040516040810181811067ffffffffffffffff821117156124a8576124a8612445565b6040526124b48361245b565b81526124c26020840161245b565b60208201529392505050565b6060815260006124e16060830185612230565b905067ffffffffffffffff808451166020840152806020850151166040840152509392505050565b600181811c9082168061251d57607f821691505b6020821081036120a057634e487b7160e01b600052602260045260246000fd5b6040815260006125506040830185612230565b82810360208401526125628185612230565b95945050505050565b601f8211156125b7576000816000526020600020601f850160051c810160208610156125945750805b601f850160051c820191505b818110156125b3578281556001016125a0565b5050505b505050565b67ffffffffffffffff8311156125d4576125d4612445565b6125e8836125e28354612509565b8361256b565b6000601f84116001811461261c57600085156126045750838201355b600019600387901b1c1916600186901b178355612676565b600083815260209020601f19861690835b8281101561264d578685013582556020948501946001909201910161262d565b508682101561266a5760001960f88860031b161c19848701351681555b505060018560011b0183555b5050505050565b80820180821115610d7c57610d7c6123c8565b6040815260006126a36040830186612230565b8281036020840152838152838560208301376000602085830101526020601f19601f860116820101915050949350505050565b6001600160f81b03198516815283516000906126f981600185016020890161220c565b84519083019061271081600184016020890161220c565b845191019061272681600184016020880161220c565b016001019695505050505050565b6001600160f81b031986811682528581166001830152848116600283015283166003820152815160009061276f81600485016020870161220c565b919091016004019695505050505050565b60ff60f81b8816815260006001885160206127a082848701838e0161220c565b8951918501916127b581858501848e0161220c565b89519201916127c981858501848d0161220c565b88519201916127dd81858501848c0161220c565b87519201916127f181858501848b0161220c565b865192019161280581858501848a0161220c565b919091019091019a9950505050505050505050565b634e487b7160e01b600052603260045260246000fd5b60ff8181168382160190811115610d7c57610d7c6123c8565b60ff8281168282160390811115610d7c57610d7c6123c8565b6001600160f81b031983168152815160009061288581600185016020870161220c565b919091016001019392505050565b6001600160f81b0319858116825284811660018301528316600282015281516000906128c681600385016020870161220c565b9190910160030195945050505050565b600084516128e881846020890161220c565b8451908301906128fc81836020890161220c565b845191019061290f81836020880161220c565b0195945050505050565b6001600160f81b03198681168252858116600183015284166002820152825160009061294c81600385016020880161220c565b83519083019061296381600384016020880161220c565b01600301979650505050505050565b600060ff60f81b8086168352845161299181600186016020890161220c565b93169190920160018101919091526002019392505050565b6001600160f81b031987811682528616600182015284516000906129d4816002850160208a0161220c565b8551908301906129eb816002840160208a0161220c565b8551910190612a0181600284016020890161220c565b8451910190612a1781600284016020880161220c565b0160020198975050505050505050565b60ff8181168382160290811690818114612a4357612a436123c8565b5092915050565b600060ff821660ff8103612a6057612a606123c8565b60010192915050565b60008351612a7b81846020880161220c565b835190830190612a8f81836020880161220c565b01949350505050565b600060ff60f81b808a1683528089166001840152808816600284015280871660038401528551612acf816004860160208a0161220c565b908516600491840191820152835190612aef82600583016020880161220c565b01600501999850505050505050505056fea26469706673582212205ea04157edd8ceaf34fa256e92b7cfb3772bf809acd3c94370d5562cf73dcd8464736f6c63430008180033",
  "linkReferences": {},
  "deployedLinkReferences": {}
}